:100000000C943E000C9448000C9448000C9448005A
:100010000C9448000C9448000C9448000C94480040
:100020000C9448000C9448000C9448000C94480030
:100030000C9448000C9448000C9448000C94480020
:100040000C9448000C9448000C9448000C94480010
:100050000C9448000C9448000C9448000C94480000
:100060000C9448000C9448000C9448000C944800F0
:100070000C9448000C9448000C94480011241FBEB6
:10008000CFEFD8E0DEBFCDBF0E94D3000C940A01B1
:100090000C940000EF92FF920F931F93CF93DF9386
:1000A00021E02093D80022E02093E20024E0209376
:1000B000E30023E12093E40020E82093DB0010928A
:1000C000ED001092EE001092EF004FEF5FEFBA01DB
:1000D0004093F4005093F5006093F6007093F7009E
:1000E000282F2295220F207E9695879596958795A5
:1000F0009695879590E0A0E0B0E0B82FAA279927C1
:100100008827A22B8093F0009093F100A093F20037
:10011000B093F30081E00DEE10E02EEE30E0CFEE74
:10012000D0E0A4EFB0E00F2EF0EFEF2EF12CF02D89
:10013000982F9295907FF8019083F9011082188290
:100140004D935D936D937C931397F7011082118209
:10015000128213828F5F8E3059F782E08093D8002D
:10016000DF91CF911F910F91FF90EF900895109222
:10017000ED00662379F0FC012FEF260F30E02F5FB2
:100180003F4F280F391FAAEFB0E091919C93E217DF
:10019000F307D9F7EFEEF0E08081807180646F7033
:1001A000682B60830895CF93DF93CDB7DEB7289790
:1001B0000FB6F894DEBF0FBECDBF80E090E00E9486
:1001C0004A007894FE01319688E0DF011D928A95FD
:1001D000E9F78FEF87B900E011E0F12C198361E0B6
:1001E000CE0101960E94B70080E492E4AFE0B0E057
:1001F0000197A109B109E1F7103829F0113031F068
:10020000002321F001C001E0169502C0110F0F2D4F
:0802100018B9E4CFF894FFCF08
:00000001FF
