:100000000C943E000C9448000C9448000C9448005A
:100010000C9448000C9448000C9448000C94480040
:100020000C9448000C9448000C9448000C94480030
:100030000C9448000C9448000C9448000C94480020
:100040000C9448000C9448000C9448000C94480010
:100050000C9448000C9448000C9448000C94480000
:100060000C9448000C9448000C9448000C944800F0
:100070000C9448000C9448000C94480011241FBEB6
:10008000CFEFD8E0DEBFCDBF0E944A000C947A00CB
:100090000C9400008FEF84B987B980E88AB9C0E872
:1000A000D0E040E2A1E8B0E0E6E8F0E0642F51E4FF
:1000B000188266BB5C93B59BFECF2081318146BB25
:1000C000B59BFECF80819181821B930B803127E20B
:1000D000920708F4459A8C3A2DE0920708F4449A66
:1000E000803D27E0920708F42A9A883E934000F763
:0800F0005F9ADECFF894FFCF08
:00000001FF
