S01100004E6F64655F636F64652E7372656393
S11300000C943E000C9450000C9450000C9450003E
S11300100C9450000C9450000C9450000C9450001C
S11300200C9450000C9450000C9450000C9450000C
S11300300C9450000C9450000C9450000C945000FC
S11300400C9450000C9474010C9450000C945000C7
S11300500C9450000C9450000C9460010C945000CB
S11300600C9450000C946A010C9450000C945000B1
S11300700C9450000C9450000C94500011241FBE9A
S1130080CFEFD8E0DEBFCDBF21E0A0E0B1E001C0FA
S11300901D92A230B207E1F70E9411010C948B016A
S11300A00C940000EAE7F0E0208127602083ACE7AD
S11300B0B0E02C9120642C932C9120622C932C91F1
S11300C026602C9320812068208320812064208353
S11300D020917900E22FF0E0DB01ED93FC9301978E
S11300E0A1F4ECE7F0E0808187608083EAE7F0E048
S11300F0808180688083808180648083809179009E
S113010090E0FA01918380830895822F90E008950E
S1130110EF92FF920F931F93CF93DF9321E02093ED
S1130120D80022E02093E20024E02093E30023E1BE
S11301302093E40020E82093DB001092ED0010925D
S1130140EE001092EF004FEF5FEFBA014093F4001E
S11301505093F5006093F6007093F700282F2295D2
S1130160220F207E969587959695879596958795E7
S113017090E0A0E0B0E0B82FAA2799278827A22B07
S11301808093F0009093F100A093F200B093F300F9
S113019081E00DEE10E02EEE30E0CFEED0E0A4EFE3
S11301A0B0E00F2EF0EFEF2EF12CF02D982F92955A
S11301B0907FF8019083F901108218824D935D932A
S11301C06D937C931397F70110821182128213822C
S11301D08F5F8E3059F782E08093D800DF91CF9102
S11301E01F910F91FF90EF9008951092ED006623F8
S11301F079F0FC012FEF260F30E02F5F3F4F280FDF
S1130200391FAAEFB0E091919C93E217F307D9F755
S1130210EFEEF0E08081807180646F70682B608302
S11302200895CF93DF93CDB7DEB728970FB6F89430
S1130230DEBF0FBECDBF80E090E00E9488001E822A
S11302401D8218861F828AEA8F8384E084B980E342
S113025087B980E88AB985B5856085BD16BCEAE6AC
S1130260F0E0808189608083E8E6F0E0808181604D
S11302708083789401E010E01E830D83AE014D5F0E
S11302805F4FBE016F5F7F4FCE0105960E94520003
S113029089818F838B81888786B5893358F08091D3
S11302A0000190910101892B29F061E0CE010796AC
S11302B00E94F50016BC1092010110920001DCCFDF
S11302C01F920F920FB60F9211240F900FBE0F9032
S11302D01F9018951F920F920FB60F9211240F9032
S11302E00FBE0F901F9018951F920F920FB60F928A
S11302F011248F939F9380910001909101010196A5
S113030090930101809300019F918F910F900FBEF4
S10D03100F901F901895F894FFCF8A
S9030000FC
