S01100004E6F64655F636F64652E7372656393
S11300000C943E000C9448000C9448000C94480056
S11300100C9448000C9448000C9448000C9448003C
S11300200C9448000C9448000C9448000C9448002C
S11300300C9448000C9448000C9448000C9448001C
S11300400C9448000C9448000C9448000C9448000C
S11300500C9448000C9448000C9447010C944800FC
S11300600C9448000C9451010C9448000C944800E2
S11300700C9448000C9448000C94480011241FBEB2
S1130080CFEFD8E0DEBFCDBF0E9413010C945B011B
S11300900C940000EAE7F0E0808187608083ACE79D
S11300A0B0E08C9180648C938C9180628C938C9161
S11300B086608C9380818068808380818064808363
S11300C0089584E1E9EFF0E03197F1F700C0000012
S11300D08150C1F70895EF92FF920F931F93CF932E
S11300E0DF9321E02093D80022E02093E20024E073
S11300F02093E30023E12093E40020E82093DB0035
S11301001092ED001092EE001092EF004FEF5FEFAF
S1130110BA014093F4005093F5006093F600709395
S1130120F700282F2295220F207E96958795969585
S113013087959695879590E0A0E0B0E0B82FAA2720
S113014099278827A22B8093F0009093F100A09325
S1130150F200B093F30081E00DEE10E02EEE30E0FB
S1130160CFEED0E0A4EFB0E00F2EF0EFEF2EF12CA5
S1130170F02D982F9295907FF8019083F9011082C9
S113018018824D935D936D937C931397F7011082BE
S11301901182128213828F5F8E3059F782E080932E
S11301A0D800DF91CF911F910F91FF90EF900895A8
S11301B01092ED00662379F0FC012FEF260F30E05A
S11301C02F5F3F4F280F391FAAEFB0E091919C9306
S11301D0E217F307D9F7EFEEF0E0808180718064D5
S11301E06F70682B60830895FC011092800080E298
S11301F086BB85E480938100B59BFECF8091860009
S1130200909187009183808380E286BBB59BFECF6B
S1130210809186009091870020813181821B930B0D
S1130220918380830895CF93DF9300D000D0CDB71E
S1130230DEB780E090E00E946B0084E084B980E344
S113024087B980E88AB91C821B828AEA8B83EAE632
S1130250F0E0808189608083E8E6F0E0808181605D
S11302608083789409E710E00E944A00F8018081B5
S11302708B83CE0101960E94F40089818C830E94B5
S1130280610061E0CE0103960E94D800EDCF1F9279
S11302900F920FB60F9211240F900FBE0F901F9064
S11302A018951F920F920FB60F9211240F900FBE44
S10D02B00F901F901895F894FFCFEB
S9030000FC
