S00B00004144432E7372656351
S11300000C943E000C9448000C9448000C94480056
S11300100C9448000C9448000C9448000C9448003C
S11300200C9448000C9448000C9448000C9448002C
S11300300C9448000C9448000C9448000C9448001C
S11300400C9448000C9448000C9448000C9448000C
S11300500C9448000C9448000C9448000C944800FC
S11300600C9448000C9448000C9448000C944800EC
S11300700C9448000C9448000C94480011241FBEB2
S1130080CFEFD8E0DEBFCDBF0E9492000C949D005C
S11300900C940000EAE7F0E0808187608083ACE79D
S11300A0B0E08C9180648C938C9180628C938C9161
S11300B086608C9380818068808380818064808363
S11300C080917900803428F45F9A2A98449845985E
S11300D008958091790088234CF0809179008034D0
S11300E028F05F9A2A9A4498459808958091790057
S11300F0803C48F48091790088232CF45F9A2A9AF2
S1130100449A459808955F9A2A9A449A459A08957C
S113011084E1E3ECF9E03197F1F700C0000081508D
S1130120C1F7089580E88AB980E387B984E084B987
S11101300E944A000E948800FBCFF894FFCF83
S9030000FC
